:03000000020003F8
:0C000300787FE4F6D8FD75812002004AE9
:10010F0020596F6E67204A6965204875616E6720B8
:10011F00002054656D70203D202020202E2020438C
:10012F002000204453313842323020204552523083
:10013F005220002020504C45415345204348454311
:10014F004B202000000101020303040405060607EB
:0C015F00080809090C12120C0000000036
:0B03520002080000050A000000000087
:040296007F057E0062
:10029A00EF1FAA0670011E4A600FE4FDEDC394FA2F
:0902AA0050EE000000000D80F38D
:0102B3002228
:10032E00C2A2D2A3D2A400000000E580339201C283
:03033E00A4A20175
:010341002299
:070230007E0012029A7F011B
:1002370012032E40FBC2A2C2A3C2A400008F8000FB
:0C024700000000D2A400000000C2A422AD
:1002B40012032E40FBD2A2C2A3C2A48F800000006E
:0A02C40000D2A400000000C2A42232
:1001A8007F0F1202307F381202371202967F381200
:1001B80002371202967F381202371202967F0C120B
:1001C80002371202967F061202371F1202307F058D
:0501D8007E0002029A06
:07035E00EF4480FF020237AB
:100319007F40120237E4FEEE90016393FF1202B4AC
:040329000EBE08F309
:01032D0022AD
:06034200D2927F087E004C
:0A034800EF1F70011E144E70F72223
:10025300120342C2927F5A7E00120348120342A243
:100263009292007F647E00120348D292A200E4FEC1
:0302730033FF2234
:10027600E4FC7D08C292ECC313FCD2923092034395
:0F02860004807F047E00120348DDE9AF047E0090
:010295002246
:0202CE00AD077A
:1002D0007B08C292ED1392927F057E00120348D2F2
:0702E00092EDC313FDDBEBFF
:0102E70022F4
:10020B001202537FCC1202CE7F441202CE12025343
:10021B007FCC1202CE7FBE1202CE1202768F081254
:05022B0002768F09229C
:10008F00E508540FF50E900153932430F50AE50956
:10009F00540FC454F0FFE50854F0FEC4540F4FF54D
:1000AF000E75F064842430F50DE50E75F0648485CB
:1000BF00F00BE50B75F00A842430F50CE50B75F0A9
:1000CF000A84E5F02430F50BE50DB4300B750D20E7
:1000DF00E50CB43003750C207F4812035EAF0D1290
:1000EF0002B47F4912035EAF0C1202B47F4A1203AF
:1000FF005EAF0B1202B47F4C12035EAF0A0202B462
:10030100E4FD7F3C7E00120348B2930DBD64F3D23D
:08031100937F407E9C0203482B
:10016B001201A8E4FF12035EE4FEEE90010F93FF71
:10017B0060061202B40E80F27F4012035EE4FEEEC4
:10018B0090012093FF60061202B40E80F212031945
:0D019B001202967F4D12035EE4FF0202B4D3
:1001DD001201A8E4FF12035EE4FEEE90013193FFDD
:1001ED0060061202B40E80F27F4012035EE4FEEE52
:0D01FD0090014293FF60061202B40E80F2E2
:01020A0022D1
:1002E80012016B12020B12008F3000F71201DD129F
:0902F80002531203012000F72259
:10000F000202E8E493A3F8E493A34003F68001F21D
:10001F0008DFF48029E493A3F85407240CC8C333F2
:10002F00C4540F4420C8834004F456800146F6DFC1
:10003F00E4800B0102040810204080900352E47EFC
:10004F00019360BCA3FF543F30E509541FFEE493B6
:10005F00A360010ECF54C025E060A840B8E493A37D
:10006F00FAE493A3F8E493A3C8C582C8CAC583CAA8
:10007F00F0A3C8C582C8CAC583CADFE9DEE780BE60
:01035D00009F
:00000001FF
